{
  "_format": "hh-sol-artifact-1",
  "contractName": "ChildERC721",
  "sourceName": "contracts/ChildERC721.sol",
  "abi": [
    {
      "inputs": [
        {
          "internalType": "string",
          "name": "name_",
          "type": "string"
        },
        {
          "internalType": "string",
          "name": "symbol_",
          "type": "string"
        },
        {
          "internalType": "address",
          "name": "motherERC721_",
          "type": "address"
        }
      ],
      "stateMutability": "nonpayable",
      "type": "constructor"
    },
    {
      "anonymous": false,
      "inputs": [
        {
          "indexed": true,
          "internalType": "address",
          "name": "owner",
          "type": "address"
        },
        {
          "indexed": true,
          "internalType": "address",
          "name": "approved",
          "type": "address"
        },
        {
          "indexed": true,
          "internalType": "uint256",
          "name": "tokenId",
          "type": "uint256"
        }
      ],
      "name": "Approval",
      "type": "event"
    },
    {
      "anonymous": false,
      "inputs": [
        {
          "indexed": true,
          "internalType": "address",
          "name": "owner",
          "type": "address"
        },
        {
          "indexed": true,
          "internalType": "address",
          "name": "operator",
          "type": "address"
        },
        {
          "indexed": false,
          "internalType": "bool",
          "name": "approved",
          "type": "bool"
        }
      ],
      "name": "ApprovalForAll",
      "type": "event"
    },
    {
      "anonymous": false,
      "inputs": [
        {
          "indexed": true,
          "internalType": "address",
          "name": "from",
          "type": "address"
        },
        {
          "indexed": true,
          "internalType": "address",
          "name": "to",
          "type": "address"
        },
        {
          "indexed": true,
          "internalType": "uint256",
          "name": "tokenId",
          "type": "uint256"
        },
        {
          "indexed": false,
          "internalType": "uint256",
          "name": "timestamp",
          "type": "uint256"
        }
      ],
      "name": "Claimed",
      "type": "event"
    },
    {
      "anonymous": false,
      "inputs": [
        {
          "indexed": true,
          "internalType": "address",
          "name": "from",
          "type": "address"
        },
        {
          "indexed": true,
          "internalType": "address",
          "name": "to",
          "type": "address"
        },
        {
          "indexed": true,
          "internalType": "uint256",
          "name": "tokenId",
          "type": "uint256"
        },
        {
          "indexed": false,
          "internalType": "uint256",
          "name": "timestamp",
          "type": "uint256"
        }
      ],
      "name": "GivenBack",
      "type": "event"
    },
    {
      "anonymous": false,
      "inputs": [
        {
          "indexed": true,
          "internalType": "address",
          "name": "from",
          "type": "address"
        },
        {
          "indexed": true,
          "internalType": "address",
          "name": "to",
          "type": "address"
        },
        {
          "indexed": true,
          "internalType": "uint256",
          "name": "tokenId",
          "type": "uint256"
        },
        {
          "indexed": false,
          "internalType": "uint256",
          "name": "duration",
          "type": "uint256"
        }
      ],
      "name": "Lent",
      "type": "event"
    },
    {
      "anonymous": false,
      "inputs": [
        {
          "indexed": true,
          "internalType": "address",
          "name": "from",
          "type": "address"
        },
        {
          "indexed": true,
          "internalType": "address",
          "name": "to",
          "type": "address"
        },
        {
          "indexed": true,
          "internalType": "uint256",
          "name": "tokenId",
          "type": "uint256"
        }
      ],
      "name": "Transfer",
      "type": "event"
    },
    {
      "inputs": [
        {
          "internalType": "address",
          "name": "to",
          "type": "address"
        },
        {
          "internalType": "uint256",
          "name": "tokenId",
          "type": "uint256"
        }
      ],
      "name": "approve",
      "outputs": [],
      "stateMutability": "nonpayable",
      "type": "function"
    },
    {
      "inputs": [
        {
          "internalType": "address",
          "name": "owner",
          "type": "address"
        }
      ],
      "name": "balanceOf",
      "outputs": [
        {
          "internalType": "uint256",
          "name": "",
          "type": "uint256"
        }
      ],
      "stateMutability": "view",
      "type": "function"
    },
    {
      "inputs": [
        {
          "internalType": "uint256",
          "name": "tokenId",
          "type": "uint256"
        }
      ],
      "name": "claim",
      "outputs": [],
      "stateMutability": "nonpayable",
      "type": "function"
    },
    {
      "inputs": [
        {
          "internalType": "uint256",
          "name": "tokenId",
          "type": "uint256"
        }
      ],
      "name": "expiration",
      "outputs": [
        {
          "internalType": "uint256",
          "name": "",
          "type": "uint256"
        }
      ],
      "stateMutability": "view",
      "type": "function"
    },
    {
      "inputs": [
        {
          "internalType": "uint256",
          "name": "tokenId",
          "type": "uint256"
        }
      ],
      "name": "getApproved",
      "outputs": [
        {
          "internalType": "address",
          "name": "",
          "type": "address"
        }
      ],
      "stateMutability": "view",
      "type": "function"
    },
    {
      "inputs": [
        {
          "internalType": "uint256",
          "name": "tokenId",
          "type": "uint256"
        }
      ],
      "name": "giveBack",
      "outputs": [],
      "stateMutability": "nonpayable",
      "type": "function"
    },
    {
      "inputs": [
        {
          "internalType": "address",
          "name": "owner",
          "type": "address"
        },
        {
          "internalType": "address",
          "name": "operator",
          "type": "address"
        }
      ],
      "name": "isApprovedForAll",
      "outputs": [
        {
          "internalType": "bool",
          "name": "",
          "type": "bool"
        }
      ],
      "stateMutability": "view",
      "type": "function"
    },
    {
      "inputs": [
        {
          "internalType": "address",
          "name": "to",
          "type": "address"
        },
        {
          "internalType": "uint256",
          "name": "tokenId",
          "type": "uint256"
        },
        {
          "internalType": "uint256",
          "name": "duration",
          "type": "uint256"
        }
      ],
      "name": "lend",
      "outputs": [],
      "stateMutability": "nonpayable",
      "type": "function"
    },
    {
      "inputs": [
        {
          "internalType": "uint256",
          "name": "tokenId",
          "type": "uint256"
        }
      ],
      "name": "mint",
      "outputs": [],
      "stateMutability": "nonpayable",
      "type": "function"
    },
    {
      "inputs": [],
      "name": "motherERC721",
      "outputs": [
        {
          "internalType": "address",
          "name": "",
          "type": "address"
        }
      ],
      "stateMutability": "view",
      "type": "function"
    },
    {
      "inputs": [],
      "name": "name",
      "outputs": [
        {
          "internalType": "string",
          "name": "",
          "type": "string"
        }
      ],
      "stateMutability": "view",
      "type": "function"
    },
    {
      "inputs": [
        {
          "internalType": "uint256",
          "name": "tokenId",
          "type": "uint256"
        }
      ],
      "name": "ownerOf",
      "outputs": [
        {
          "internalType": "address",
          "name": "",
          "type": "address"
        }
      ],
      "stateMutability": "view",
      "type": "function"
    },
    {
      "inputs": [
        {
          "internalType": "address",
          "name": "",
          "type": "address"
        },
        {
          "internalType": "address",
          "name": "",
          "type": "address"
        },
        {
          "internalType": "uint256",
          "name": "",
          "type": "uint256"
        }
      ],
      "name": "safeTransferFrom",
      "outputs": [],
      "stateMutability": "nonpayable",
      "type": "function"
    },
    {
      "inputs": [
        {
          "internalType": "address",
          "name": "from",
          "type": "address"
        },
        {
          "internalType": "address",
          "name": "to",
          "type": "address"
        },
        {
          "internalType": "uint256",
          "name": "tokenId",
          "type": "uint256"
        },
        {
          "internalType": "bytes",
          "name": "data",
          "type": "bytes"
        }
      ],
      "name": "safeTransferFrom",
      "outputs": [],
      "stateMutability": "nonpayable",
      "type": "function"
    },
    {
      "inputs": [
        {
          "internalType": "address",
          "name": "operator",
          "type": "address"
        },
        {
          "internalType": "bool",
          "name": "approved",
          "type": "bool"
        }
      ],
      "name": "setApprovalForAll",
      "outputs": [],
      "stateMutability": "nonpayable",
      "type": "function"
    },
    {
      "inputs": [
        {
          "internalType": "bytes4",
          "name": "interfaceId",
          "type": "bytes4"
        }
      ],
      "name": "supportsInterface",
      "outputs": [
        {
          "internalType": "bool",
          "name": "",
          "type": "bool"
        }
      ],
      "stateMutability": "view",
      "type": "function"
    },
    {
      "inputs": [],
      "name": "symbol",
      "outputs": [
        {
          "internalType": "string",
          "name": "",
          "type": "string"
        }
      ],
      "stateMutability": "view",
      "type": "function"
    },
    {
      "inputs": [
        {
          "internalType": "uint256",
          "name": "tokenId",
          "type": "uint256"
        }
      ],
      "name": "tokenURI",
      "outputs": [
        {
          "internalType": "string",
          "name": "",
          "type": "string"
        }
      ],
      "stateMutability": "view",
      "type": "function"
    },
    {
      "inputs": [
        {
          "internalType": "address",
          "name": "",
          "type": "address"
        },
        {
          "internalType": "address",
          "name": "",
          "type": "address"
        },
        {
          "internalType": "uint256",
          "name": "",
          "type": "uint256"
        }
      ],
      "name": "transferFrom",
      "outputs": [],
      "stateMutability": "nonpayable",
      "type": "function"
    }
  ],
  "bytecode": "0x60806040523480156200001157600080fd5b50604051620034e2380380620034e2833981810160405281019062000037919062000313565b828281600090816200004a9190620005f8565b5080600190816200005c9190620005f8565b505050600073ffffffffffffffffffffffffffffffffffffffff168173ffffffffffffffffffffffffffffffffffffffff1603620000d1576040517f08c379a0000000000000000000000000000000000000000000000000000000008152600401620000c89062000766565b60405180910390fd5b80600660006101000a81548173ffffffffffffffffffffffffffffffffffffffff021916908373ffffffffffffffffffffffffffffffffffffffff16021790555050505062000788565b6000604051905090565b600080fd5b600080fd5b600080fd5b600080fd5b6000601f19601f8301169050919050565b7f4e487b7100000000000000000000000000000000000000000000000000000000600052604160045260246000fd5b620001848262000139565b810181811067ffffffffffffffff82111715620001a657620001a56200014a565b5b80604052505050565b6000620001bb6200011b565b9050620001c9828262000179565b919050565b600067ffffffffffffffff821115620001ec57620001eb6200014a565b5b620001f78262000139565b9050602081019050919050565b60005b838110156200022457808201518184015260208101905062000207565b60008484015250505050565b6000620002476200024184620001ce565b620001af565b90508281526020810184848401111562000266576200026562000134565b5b6200027384828562000204565b509392505050565b600082601f8301126200029357620002926200012f565b5b8151620002a584826020860162000230565b91505092915050565b600073ffffffffffffffffffffffffffffffffffffffff82169050919050565b6000620002db82620002ae565b9050919050565b620002ed81620002ce565b8114620002f957600080fd5b50565b6000815190506200030d81620002e2565b92915050565b6000806000606084860312156200032f576200032e62000125565b5b600084015167ffffffffffffffff81111562000350576200034f6200012a565b5b6200035e868287016200027b565b935050602084015167ffffffffffffffff8111156200038257620003816200012a565b5b62000390868287016200027b565b9250506040620003a386828701620002fc565b9150509250925092565b600081519050919050565b7f4e487b7100000000000000000000000000000000000000000000000000000000600052602260045260246000fd5b600060028204905060018216806200040057607f821691505b602082108103620004165762000415620003b8565b5b50919050565b60008190508160005260206000209050919050565b60006020601f8301049050919050565b600082821b905092915050565b600060088302620004807fffffffffffffffffffffffffffffffffffffffffffffffffffffffffffffffff8262000441565b6200048c868362000441565b95508019841693508086168417925050509392505050565b6000819050919050565b6000819050919050565b6000620004d9620004d3620004cd84620004a4565b620004ae565b620004a4565b9050919050565b6000819050919050565b620004f583620004b8565b6200050d6200050482620004e0565b8484546200044e565b825550505050565b600090565b6200052462000515565b62000531818484620004ea565b505050565b5b8181101562000559576200054d6000826200051a565b60018101905062000537565b5050565b601f821115620005a85762000572816200041c565b6200057d8462000431565b810160208510156200058d578190505b620005a56200059c8562000431565b83018262000536565b50505b505050565b600082821c905092915050565b6000620005cd60001984600802620005ad565b1980831691505092915050565b6000620005e88383620005ba565b9150826002028217905092915050565b6200060382620003ad565b67ffffffffffffffff8111156200061f576200061e6200014a565b5b6200062b8254620003e7565b620006388282856200055d565b600060209050601f8311600181146200067057600084156200065b578287015190505b620006678582620005da565b865550620006d7565b601f19841662000680866200041c565b60005b82811015620006aa5784890151825560018201915060208501945060208101905062000683565b86831015620006ca5784890151620006c6601f891682620005ba565b8355505b6001600288020188555050505b505050505050565b600082825260208201905092915050565b7f4368696c644552433732313a206f726967696e20697320746865207a65726f2060008201527f6164647265737300000000000000000000000000000000000000000000000000602082015250565b60006200074e602783620006df565b91506200075b82620006f0565b604082019050919050565b6000602082019050818103600083015262000781816200073f565b9050919050565b612d4a80620007986000396000f3fe608060405234801561001057600080fd5b50600436106101215760003560e01c80637082d203116100ad578063a22cb46511610071578063a22cb46514610316578063b88d4fde14610332578063c87b56dd1461034e578063e985e9c51461037e578063f6769a8d146103ae57610121565b80637082d2031461026057806370a082311461027c57806395d89b41146102ac578063a0712d68146102ca578063a1e08911146102e657610121565b80630d5847b0116100f45780630d5847b0146101c057806323b872dd146101dc578063379607f5146101f857806342842e0e146102145780636352211e1461023057610121565b806301ffc9a71461012657806306fdde0314610156578063081812fc14610174578063095ea7b3146101a4575b600080fd5b610140600480360381019061013b9190611e50565b6103cc565b60405161014d9190611e98565b60405180910390f35b61015e6104ae565b60405161016b9190611f43565b60405180910390f35b61018e60048036038101906101899190611f9b565b610540565b60405161019b9190612009565b60405180910390f35b6101be60048036038101906101b99190612050565b610586565b005b6101da60048036038101906101d59190611f9b565b61069d565b005b6101f660048036038101906101f19190612090565b610810565b005b610212600480360381019061020d9190611f9b565b61084b565b005b61022e60048036038101906102299190612090565b610a13565b005b61024a60048036038101906102459190611f9b565b610a4e565b6040516102579190612009565b60405180910390f35b61027a600480360381019061027591906120e3565b610ad4565b005b61029660048036038101906102919190612136565b610c64565b6040516102a39190612172565b60405180910390f35b6102b4610d1b565b6040516102c19190611f43565b60405180910390f35b6102e460048036038101906102df9190611f9b565b610dad565b005b61030060048036038101906102fb9190611f9b565b610e5b565b60405161030d9190612172565b60405180910390f35b610330600480360381019061032b91906121b9565b610e78565b005b61034c6004803603810190610347919061232e565b610e8e565b005b61036860048036038101906103639190611f9b565b610ef0565b6040516103759190611f43565b60405180910390f35b610398600480360381019061039391906123b1565b610f58565b6040516103a59190611e98565b60405180910390f35b6103b6610fec565b6040516103c39190612009565b60405180910390f35b60007f80ac58cd000000000000000000000000000000000000000000000000000000007bffffffffffffffffffffffffffffffffffffffffffffffffffffffff1916827bffffffffffffffffffffffffffffffffffffffffffffffffffffffff1916148061049757507f5b5e139f000000000000000000000000000000000000000000000000000000007bffffffffffffffffffffffffffffffffffffffffffffffffffffffff1916827bffffffffffffffffffffffffffffffffffffffffffffffffffffffff1916145b806104a757506104a682611016565b5b9050919050565b6060600080546104bd90612420565b80601f01602080910402602001604051908101604052809291908181526020018280546104e990612420565b80156105365780601f1061050b57610100808354040283529160200191610536565b820191906000526020600020905b81548152906001019060200180831161051957829003601f168201915b5050505050905090565b600061054b82611080565b6004600083815260200190815260200160002060009054906101000a900473ffffffffffffffffffffffffffffffffffffffff169050919050565b600061059182610a4e565b90508073ffffffffffffffffffffffffffffffffffffffff168373ffffffffffffffffffffffffffffffffffffffff1603610601576040517f08c379a00000000000000000000000000000000000000000000000000000000081526004016105f8906124c3565b60405180910390fd5b8073ffffffffffffffffffffffffffffffffffffffff166106206110cb565b73ffffffffffffffffffffffffffffffffffffffff16148061064f575061064e816106496110cb565b610f58565b5b61068e576040517f08c379a000000000000000000000000000000000000000000000000000000000815260040161068590612555565b60405180910390fd5b61069883836110d3565b505050565b60006106a88261118c565b90508073ffffffffffffffffffffffffffffffffffffffff163373ffffffffffffffffffffffffffffffffffffffff1614806106f157506106f0816106eb6110cb565b610f58565b5b6106fa57600080fd5b6000600660009054906101000a900473ffffffffffffffffffffffffffffffffffffffff1673ffffffffffffffffffffffffffffffffffffffff16636352211e846040518263ffffffff1660e01b81526004016107579190612172565b602060405180830381865afa158015610774573d6000803e3d6000fd5b505050506040513d601f19601f82011682018060405250810190610798919061258a565b90506107a58282856111c9565b828173ffffffffffffffffffffffffffffffffffffffff168373ffffffffffffffffffffffffffffffffffffffff167f96e21a995d7c98c9faccf26b3fc959c6e2c8bfcbb00fe64cc841948456ff63ae426040516108039190612172565b60405180910390a4505050565b6040517f08c379a000000000000000000000000000000000000000000000000000000000815260040161084290612629565b60405180910390fd5b426007600083815260200190815260200160002054106108a0576040517f08c379a000000000000000000000000000000000000000000000000000000000815260040161089790612695565b60405180910390fd5b6000600660009054906101000a900473ffffffffffffffffffffffffffffffffffffffff1673ffffffffffffffffffffffffffffffffffffffff16636352211e836040518263ffffffff1660e01b81526004016108fd9190612172565b602060405180830381865afa15801561091a573d6000803e3d6000fd5b505050506040513d601f19601f8201168201806040525081019061093e919061258a565b90508073ffffffffffffffffffffffffffffffffffffffff163373ffffffffffffffffffffffffffffffffffffffff1614806109875750610986816109816110cb565b610f58565b5b61099057600080fd5b600061099b83610a4e565b90506109a88183856111c9565b828173ffffffffffffffffffffffffffffffffffffffff168373ffffffffffffffffffffffffffffffffffffffff167f2f6639d24651730c7bf57c95ddbf96d66d11477e4ec626876f92c22e5f365e6842604051610a069190612172565b60405180910390a4505050565b6040517f08c379a0000000000000000000000000000000000000000000000000000000008152600401610a4590612629565b60405180910390fd5b600080610a5a8361118c565b9050600073ffffffffffffffffffffffffffffffffffffffff168173ffffffffffffffffffffffffffffffffffffffff1603610acb576040517f08c379a0000000000000000000000000000000000000000000000000000000008152600401610ac290612701565b60405180910390fd5b80915050919050565b6000600660009054906101000a900473ffffffffffffffffffffffffffffffffffffffff1673ffffffffffffffffffffffffffffffffffffffff16636352211e846040518263ffffffff1660e01b8152600401610b319190612172565b602060405180830381865afa158015610b4e573d6000803e3d6000fd5b505050506040513d601f19601f82011682018060405250810190610b72919061258a565b90508073ffffffffffffffffffffffffffffffffffffffff163373ffffffffffffffffffffffffffffffffffffffff161480610bbb5750610bba81610bb56110cb565b610f58565b5b610bc457600080fd5b60008242610bd29190612750565b9050806007600086815260200190815260200160002081905550610bf78286866111c9565b838573ffffffffffffffffffffffffffffffffffffffff168373ffffffffffffffffffffffffffffffffffffffff167fb07c18dba66f7fd615f13c777549719e8ea100489339e0fdc30b7076bd77d60486604051610c559190612172565b60405180910390a45050505050565b60008073ffffffffffffffffffffffffffffffffffffffff168273ffffffffffffffffffffffffffffffffffffffff1603610cd4576040517f08c379a0000000000000000000000000000000000000000000000000000000008152600401610ccb906127f6565b60405180910390fd5b600360008373ffffffffffffffffffffffffffffffffffffffff1673ffffffffffffffffffffffffffffffffffffffff168152602001908152602001600020549050919050565b606060018054610d2a90612420565b80601f0160208091040260200160405190810160405280929190818152602001828054610d5690612420565b8015610da35780601f10610d7857610100808354040283529160200191610da3565b820191906000526020600020905b815481529060010190602001808311610d8657829003601f168201915b5050505050905090565b6000600660009054906101000a900473ffffffffffffffffffffffffffffffffffffffff1673ffffffffffffffffffffffffffffffffffffffff16636352211e836040518263ffffffff1660e01b8152600401610e0a9190612172565b602060405180830381865afa158015610e27573d6000803e3d6000fd5b505050506040513d601f19601f82011682018060405250810190610e4b919061258a565b9050610e5781836114c2565b5050565b600060076000838152602001908152602001600020549050919050565b610e8a610e836110cb565b83836114e0565b5050565b610e9f610e996110cb565b8361164c565b610ede576040517f08c379a0000000000000000000000000000000000000000000000000000000008152600401610ed590612888565b60405180910390fd5b610eea848484846116e1565b50505050565b6060610efb82611080565b6000610f0561173d565b90506000815111610f255760405180602001604052806000815250610f50565b80610f2f84611754565b604051602001610f409291906128e4565b6040516020818303038152906040525b915050919050565b6000600560008473ffffffffffffffffffffffffffffffffffffffff1673ffffffffffffffffffffffffffffffffffffffff16815260200190815260200160002060008373ffffffffffffffffffffffffffffffffffffffff1673ffffffffffffffffffffffffffffffffffffffff16815260200190815260200160002060009054906101000a900460ff16905092915050565b6000600660009054906101000a900473ffffffffffffffffffffffffffffffffffffffff16905090565b60007f01ffc9a7000000000000000000000000000000000000000000000000000000007bffffffffffffffffffffffffffffffffffffffffffffffffffffffff1916827bffffffffffffffffffffffffffffffffffffffffffffffffffffffff1916149050919050565b61108981611822565b6110c8576040517f08c379a00000000000000000000000000000000000000000000000000000000081526004016110bf90612701565b60405180910390fd5b50565b600033905090565b816004600083815260200190815260200160002060006101000a81548173ffffffffffffffffffffffffffffffffffffffff021916908373ffffffffffffffffffffffffffffffffffffffff160217905550808273ffffffffffffffffffffffffffffffffffffffff1661114683610a4e565b73ffffffffffffffffffffffffffffffffffffffff167f8c5be1e5ebec7d5bd14f71427d1e84f3dd0314c0f7b2291e5b200ac8c7c3b92560405160405180910390a45050565b60006002600083815260200190815260200160002060009054906101000a900473ffffffffffffffffffffffffffffffffffffffff169050919050565b8273ffffffffffffffffffffffffffffffffffffffff166111e982610a4e565b73ffffffffffffffffffffffffffffffffffffffff161461123f576040517f08c379a00000000000000000000000000000000000000000000000000000000081526004016112369061297a565b60405180910390fd5b600073ffffffffffffffffffffffffffffffffffffffff168273ffffffffffffffffffffffffffffffffffffffff16036112ae576040517f08c379a00000000000000000000000000000000000000000000000000000000081526004016112a590612a0c565b60405180910390fd5b6112bb8383836001611863565b8273ffffffffffffffffffffffffffffffffffffffff166112db82610a4e565b73ffffffffffffffffffffffffffffffffffffffff1614611331576040517f08c379a00000000000000000000000000000000000000000000000000000000081526004016113289061297a565b60405180910390fd5b6004600082815260200190815260200160002060006101000a81549073ffffffffffffffffffffffffffffffffffffffff02191690556001600360008573ffffffffffffffffffffffffffffffffffffffff1673ffffffffffffffffffffffffffffffffffffffff168152602001908152602001600020600082825403925050819055506001600360008473ffffffffffffffffffffffffffffffffffffffff1673ffffffffffffffffffffffffffffffffffffffff16815260200190815260200160002060008282540192505081905550816002600083815260200190815260200160002060006101000a81548173ffffffffffffffffffffffffffffffffffffffff021916908373ffffffffffffffffffffffffffffffffffffffff160217905550808273ffffffffffffffffffffffffffffffffffffffff168473ffffffffffffffffffffffffffffffffffffffff167fddf252ad1be2c89b69c2b068fc378daa952ba7f163c4a11628f55a4df523b3ef60405160405180910390a46114bd8383836001611869565b505050565b6114dc82826040518060200160405280600081525061186f565b5050565b8173ffffffffffffffffffffffffffffffffffffffff168373ffffffffffffffffffffffffffffffffffffffff160361154e576040517f08c379a000000000000000000000000000000000000000000000000000000000815260040161154590612a78565b60405180910390fd5b80600560008573ffffffffffffffffffffffffffffffffffffffff1673ffffffffffffffffffffffffffffffffffffffff16815260200190815260200160002060008473ffffffffffffffffffffffffffffffffffffffff1673ffffffffffffffffffffffffffffffffffffffff16815260200190815260200160002060006101000a81548160ff0219169083151502179055508173ffffffffffffffffffffffffffffffffffffffff168373ffffffffffffffffffffffffffffffffffffffff167f17307eab39ab6107e8899845ad3d59bd9653f200f220920489ca2b5937696c318360405161163f9190611e98565b60405180910390a3505050565b60008061165883610a4e565b90508073ffffffffffffffffffffffffffffffffffffffff168473ffffffffffffffffffffffffffffffffffffffff16148061169a57506116998185610f58565b5b806116d857508373ffffffffffffffffffffffffffffffffffffffff166116c084610540565b73ffffffffffffffffffffffffffffffffffffffff16145b91505092915050565b6116ec8484846111c9565b6116f8848484846118ca565b611737576040517f08c379a000000000000000000000000000000000000000000000000000000000815260040161172e90612b0a565b60405180910390fd5b50505050565b606060405180602001604052806000815250905090565b60606000600161176384611a51565b01905060008167ffffffffffffffff81111561178257611781612203565b5b6040519080825280601f01601f1916602001820160405280156117b45781602001600182028036833780820191505090505b509050600082602001820190505b600115611817578080600190039150507f3031323334353637383961626364656600000000000000000000000000000000600a86061a8153600a858161180b5761180a612b2a565b5b049450600085036117c2575b819350505050919050565b60008073ffffffffffffffffffffffffffffffffffffffff166118448361118c565b73ffffffffffffffffffffffffffffffffffffffff1614159050919050565b50505050565b50505050565b6118798383611ba4565b61188660008484846118ca565b6118c5576040517f08c379a00000000000000000000000000000000000000000000000000000000081526004016118bc90612b0a565b60405180910390fd5b505050565b60006118eb8473ffffffffffffffffffffffffffffffffffffffff16611dc1565b15611a44578373ffffffffffffffffffffffffffffffffffffffff1663150b7a026119146110cb565b8786866040518563ffffffff1660e01b81526004016119369493929190612bae565b6020604051808303816000875af192505050801561197257506040513d601f19601f8201168201806040525081019061196f9190612c0f565b60015b6119f4573d80600081146119a2576040519150601f19603f3d011682016040523d82523d6000602084013e6119a7565b606091505b5060008151036119ec576040517f08c379a00000000000000000000000000000000000000000000000000000000081526004016119e390612b0a565b60405180910390fd5b805181602001fd5b63150b7a0260e01b7bffffffffffffffffffffffffffffffffffffffffffffffffffffffff1916817bffffffffffffffffffffffffffffffffffffffffffffffffffffffff191614915050611a49565b600190505b949350505050565b600080600090507a184f03e93ff9f4daa797ed6e38ed64bf6a1f0100000000000000008310611aaf577a184f03e93ff9f4daa797ed6e38ed64bf6a1f0100000000000000008381611aa557611aa4612b2a565b5b0492506040810190505b6d04ee2d6d415b85acef81000000008310611aec576d04ee2d6d415b85acef81000000008381611ae257611ae1612b2a565b5b0492506020810190505b662386f26fc100008310611b1b57662386f26fc100008381611b1157611b10612b2a565b5b0492506010810190505b6305f5e1008310611b44576305f5e1008381611b3a57611b39612b2a565b5b0492506008810190505b6127108310611b69576127108381611b5f57611b5e612b2a565b5b0492506004810190505b60648310611b8c5760648381611b8257611b81612b2a565b5b0492506002810190505b600a8310611b9b576001810190505b80915050919050565b600073ffffffffffffffffffffffffffffffffffffffff168273ffffffffffffffffffffffffffffffffffffffff1603611c13576040517f08c379a0000000000000000000000000000000000000000000000000000000008152600401611c0a90612c88565b60405180910390fd5b611c1c81611822565b15611c5c576040517f08c379a0000000000000000000000000000000000000000000000000000000008152600401611c5390612cf4565b60405180910390fd5b611c6a600083836001611863565b611c7381611822565b15611cb3576040517f08c379a0000000000000000000000000000000000000000000000000000000008152600401611caa90612cf4565b60405180910390fd5b6001600360008473ffffffffffffffffffffffffffffffffffffffff1673ffffffffffffffffffffffffffffffffffffffff16815260200190815260200160002060008282540192505081905550816002600083815260200190815260200160002060006101000a81548173ffffffffffffffffffffffffffffffffffffffff021916908373ffffffffffffffffffffffffffffffffffffffff160217905550808273ffffffffffffffffffffffffffffffffffffffff16600073ffffffffffffffffffffffffffffffffffffffff167fddf252ad1be2c89b69c2b068fc378daa952ba7f163c4a11628f55a4df523b3ef60405160405180910390a4611dbd600083836001611869565b5050565b6000808273ffffffffffffffffffffffffffffffffffffffff163b119050919050565b6000604051905090565b600080fd5b600080fd5b60007fffffffff0000000000000000000000000000000000000000000000000000000082169050919050565b611e2d81611df8565b8114611e3857600080fd5b50565b600081359050611e4a81611e24565b92915050565b600060208284031215611e6657611e65611dee565b5b6000611e7484828501611e3b565b91505092915050565b60008115159050919050565b611e9281611e7d565b82525050565b6000602082019050611ead6000830184611e89565b92915050565b600081519050919050565b600082825260208201905092915050565b60005b83811015611eed578082015181840152602081019050611ed2565b60008484015250505050565b6000601f19601f8301169050919050565b6000611f1582611eb3565b611f1f8185611ebe565b9350611f2f818560208601611ecf565b611f3881611ef9565b840191505092915050565b60006020820190508181036000830152611f5d8184611f0a565b905092915050565b6000819050919050565b611f7881611f65565b8114611f8357600080fd5b50565b600081359050611f9581611f6f565b92915050565b600060208284031215611fb157611fb0611dee565b5b6000611fbf84828501611f86565b91505092915050565b600073ffffffffffffffffffffffffffffffffffffffff82169050919050565b6000611ff382611fc8565b9050919050565b61200381611fe8565b82525050565b600060208201905061201e6000830184611ffa565b92915050565b61202d81611fe8565b811461203857600080fd5b50565b60008135905061204a81612024565b92915050565b6000806040838503121561206757612066611dee565b5b60006120758582860161203b565b925050602061208685828601611f86565b9150509250929050565b6000806000606084860312156120a9576120a8611dee565b5b60006120b78682870161203b565b93505060206120c88682870161203b565b92505060406120d986828701611f86565b9150509250925092565b6000806000606084860312156120fc576120fb611dee565b5b600061210a8682870161203b565b935050602061211b86828701611f86565b925050604061212c86828701611f86565b9150509250925092565b60006020828403121561214c5761214b611dee565b5b600061215a8482850161203b565b91505092915050565b61216c81611f65565b82525050565b60006020820190506121876000830184612163565b92915050565b61219681611e7d565b81146121a157600080fd5b50565b6000813590506121b38161218d565b92915050565b600080604083850312156121d0576121cf611dee565b5b60006121de8582860161203b565b92505060206121ef858286016121a4565b9150509250929050565b600080fd5b600080fd5b7f4e487b7100000000000000000000000000000000000000000000000000000000600052604160045260246000fd5b61223b82611ef9565b810181811067ffffffffffffffff8211171561225a57612259612203565b5b80604052505050565b600061226d611de4565b90506122798282612232565b919050565b600067ffffffffffffffff82111561229957612298612203565b5b6122a282611ef9565b9050602081019050919050565b82818337600083830152505050565b60006122d16122cc8461227e565b612263565b9050828152602081018484840111156122ed576122ec6121fe565b5b6122f88482856122af565b509392505050565b600082601f830112612315576123146121f9565b5b81356123258482602086016122be565b91505092915050565b6000806000806080858703121561234857612347611dee565b5b60006123568782880161203b565b94505060206123678782880161203b565b935050604061237887828801611f86565b925050606085013567ffffffffffffffff81111561239957612398611df3565b5b6123a587828801612300565b91505092959194509250565b600080604083850312156123c8576123c7611dee565b5b60006123d68582860161203b565b92505060206123e78582860161203b565b9150509250929050565b7f4e487b7100000000000000000000000000000000000000000000000000000000600052602260045260246000fd5b6000600282049050600182168061243857607f821691505b60208210810361244b5761244a6123f1565b5b50919050565b7f4552433732313a20617070726f76616c20746f2063757272656e74206f776e6560008201527f7200000000000000000000000000000000000000000000000000000000000000602082015250565b60006124ad602183611ebe565b91506124b882612451565b604082019050919050565b600060208201905081810360008301526124dc816124a0565b9050919050565b7f4552433732313a20617070726f76652063616c6c6572206973206e6f7420746f60008201527f6b656e206f776e6572206f7220617070726f76656420666f7220616c6c000000602082015250565b600061253f603d83611ebe565b915061254a826124e3565b604082019050919050565b6000602082019050818103600083015261256e81612532565b9050919050565b60008151905061258481612024565b92915050565b6000602082840312156125a05761259f611dee565b5b60006125ae84828501612575565b91505092915050565b7f576520646f206e6f7420616c6c6f77207472616e73666572206f66206f776e6560008201527f72736869702e0000000000000000000000000000000000000000000000000000602082015250565b6000612613602683611ebe565b915061261e826125b7565b604082019050919050565b6000602082019050818103600083015261264281612606565b9050919050565b7f4368696c644552433732313a206e6f7420657870697265640000000000000000600082015250565b600061267f601883611ebe565b915061268a82612649565b602082019050919050565b600060208201905081810360008301526126ae81612672565b9050919050565b7f4552433732313a20696e76616c696420746f6b656e2049440000000000000000600082015250565b60006126eb601883611ebe565b91506126f6826126b5565b602082019050919050565b6000602082019050818103600083015261271a816126de565b9050919050565b7f4e487b7100000000000000000000000000000000000000000000000000000000600052601160045260246000fd5b600061275b82611f65565b915061276683611f65565b925082820190508082111561277e5761277d612721565b5b92915050565b7f4552433732313a2061646472657373207a65726f206973206e6f74206120766160008201527f6c6964206f776e65720000000000000000000000000000000000000000000000602082015250565b60006127e0602983611ebe565b91506127eb82612784565b604082019050919050565b6000602082019050818103600083015261280f816127d3565b9050919050565b7f4552433732313a2063616c6c6572206973206e6f7420746f6b656e206f776e6560008201527f72206f7220617070726f76656400000000000000000000000000000000000000602082015250565b6000612872602d83611ebe565b915061287d82612816565b604082019050919050565b600060208201905081810360008301526128a181612865565b9050919050565b600081905092915050565b60006128be82611eb3565b6128c881856128a8565b93506128d8818560208601611ecf565b80840191505092915050565b60006128f082856128b3565b91506128fc82846128b3565b91508190509392505050565b7f4552433732313a207472616e736665722066726f6d20696e636f72726563742060008201527f6f776e6572000000000000000000000000000000000000000000000000000000602082015250565b6000612964602583611ebe565b915061296f82612908565b604082019050919050565b6000602082019050818103600083015261299381612957565b9050919050565b7f4552433732313a207472616e7366657220746f20746865207a65726f2061646460008201527f7265737300000000000000000000000000000000000000000000000000000000602082015250565b60006129f6602483611ebe565b9150612a018261299a565b604082019050919050565b60006020820190508181036000830152612a25816129e9565b9050919050565b7f4552433732313a20617070726f766520746f2063616c6c657200000000000000600082015250565b6000612a62601983611ebe565b9150612a6d82612a2c565b602082019050919050565b60006020820190508181036000830152612a9181612a55565b9050919050565b7f4552433732313a207472616e7366657220746f206e6f6e20455243373231526560008201527f63656976657220696d706c656d656e7465720000000000000000000000000000602082015250565b6000612af4603283611ebe565b9150612aff82612a98565b604082019050919050565b60006020820190508181036000830152612b2381612ae7565b9050919050565b7f4e487b7100000000000000000000000000000000000000000000000000000000600052601260045260246000fd5b600081519050919050565b600082825260208201905092915050565b6000612b8082612b59565b612b8a8185612b64565b9350612b9a818560208601611ecf565b612ba381611ef9565b840191505092915050565b6000608082019050612bc36000830187611ffa565b612bd06020830186611ffa565b612bdd6040830185612163565b8181036060830152612bef8184612b75565b905095945050505050565b600081519050612c0981611e24565b92915050565b600060208284031215612c2557612c24611dee565b5b6000612c3384828501612bfa565b91505092915050565b7f4552433732313a206d696e7420746f20746865207a65726f2061646472657373600082015250565b6000612c72602083611ebe565b9150612c7d82612c3c565b602082019050919050565b60006020820190508181036000830152612ca181612c65565b9050919050565b7f4552433732313a20746f6b656e20616c7265616479206d696e74656400000000600082015250565b6000612cde601c83611ebe565b9150612ce982612ca8565b602082019050919050565b60006020820190508181036000830152612d0d81612cd1565b905091905056fea2646970667358221220cbde0e2288af1746136806205b0d108de8c9d41acada3b770c7b3986e6be0dd664736f6c63430008120033",
  "linkReferences": {},
  "deployedLinkReferences": {}
}